:10030B0053B1FB43B2041200037F007EF812023993
:10031B007FE87E031203EB7FE87E031203EB7FE0A3
:10032B007E071202397FE87E031203EB7FE87E0320
:10033B001203EB7F1F7E001202397FE87E0312034C
:0A034B00EB7FE87E031203EB80BF96
:1003EB00E4FDFCC3ED9FEE6480F8EC64809850153F
:1003FB00E4FBFA0BBB00010ABA03F8BBE8F50DBD31
:05040B0000010C80DE81
:0104100022C9
:10041100E4FDFCC3ED9FEE6480F8EC648098501518
:10042100E4FBFA0BBB00010AEB64014A70F50DBD58
:0504310000010C80DE5B
:0104360022A3
:030000000201AD4D
:0C01AD00787FE4F6D8FD7581070201F4AC
:0A04C5004200000000420002FFFFA9
:0B04370012046390000FE0FEA3E0FF42
:10044200AD07AC06C292C293ECFF8FA0AF058F80BE
:07045200C291D291D2932266
:0A045900120442E4FF120463E4FF02
:10046300AD07AC06D292C293ECFF8FA0AF058F808D
:07047300C291D291D2932245
:10049500AD07AC06D292C293ECFF8FA0AF058F805B
:0704A500C291D291D2932213
:0E04AC00AB05AA04120442AE02AF03020463C1
:0B04BA0090000BE0FEA3E0FF020442F4
:08023900900011EEF0A3EFF0BC
:10024100900005E024FFFB900004E034FFFA9000E9
:1002510007E024FFFE900006E034FF90001BF0A3AE
:10026100CEF0E4FDFCFFFE1202BAE4900013F0A30D
:10027100F0900004E0FEA3E0FFC3900014E09F9023
:100281000013E09E5032E4FBFAD3900007E09B900C
:100291000006E09A4012900011E0FEA3E0FF120474
:1002A100950BBB00010A80E1900014E004F070C1DD
:0802B100900013E004F080B995
:0102B9002222
:1003C100AB07AA068D828C83C006C007AE83AF82BD
:1003D10090001BEEF0A3EFF0D007D0061202BA9006
:0A03E1000000E0FEA3E0FF02046349
:10047A00D2B37F327E001203EBC2B37F327E001208
:0B048A0003EBD2B37F327E000203EBD5
:1000030012047AD2907FCF7E00120442E4FF1204DE
:10001300637FC11204637F301204637FED120442D5
:100023007F641204637F031204637F121204637FED
:10003300811204637FE81204427F851204637F10F8
:100043001204637F7A1204637FCB1204427F391256
:1000530004637F2C12045E7F341204637F02120454
:10006300637FF71204427F201204637FEA1204596C
:100073007FC01204427F1B1204637FC11204427FBC
:10008300011204637FC51204427F301204637F3080
:100093001204637FC71204427FB71204637F3612D0
:1000A30004427F481204637F3A1204427F551204CC
:1000B300637FB1120442E4FF1204637F1A120463E4
:1000C3007FB61204427F0A1204637FA21204637F85
:1000D300F2120442E4FF1204637F261204427F01FA
:1000E3001204637FE01204427F0F1204637F2A121B
:1000F30004637F281204637F081204637F0E1204D3
:10010300637F081204637F541204637FA91204639C
:100113007F431204637F0A1204637F0F1204631286
:10012300045C12045C7FE1120442E4FF1204637F67
:10013300151204637F171204637F071204637F1190
:100143001204637F061204637F2B1204637F56122B
:1001530004637F3C1204637F051204637F1012045F
:10016300637F0F1204637F3F1204637F3F120463B4
:100173007F0F1204637F2B1204597F011204637FE4
:100183003F1204637F2A120459E4FF1204637FEFD2
:100193001204637F111204427F781203EB7F297EDE
:0A01A30000120442120355D2B222EA
:1002BA00900015EEF0A3EFF0A3ECF0A3EDF09000A0
:1002CA000D12043D900015E0FF7E00120463A3E0C6
:1002DA00FF120463EAFF120463AF037E00120437BD
:1002EA00900017E0FF7E00120463A3E0FF1204638C
:1002FA0090001BE0FF120463A3E0FF1204630204F0
:01030A00BA38
:10038E0090001DEEF0A3EFF0AB05AA0490000D1245
:10039E00043D90001DE0FF7E00120463A3E0FF12F7
:1003AE000437EAFF7E00120463AF037E001204637B
:0303BE000204BA7C
:1003550090000BE4F0A3742CF090000A7401F09067
:100365000004F0A37440F0A3E4F0A374F0F090004F
:100375000DE4F0A3742AF0A3E4F0A3742BF07D6CD4
:090385007C007F367E000204AC0E
:1001B90002030BE493A3F8E493A34003F68001F24E
:1001C90008DFF48029E493A3F85407240CC8C33347
:1001D900C4540F4420C8834004F456800146F6DF16
:1001E900E4800B01020408102040809004C5E47EDD
:1001F900019360BCA3FF543F30E509541FFEE4930B
:10020900A360010ECF54C025E060A840B8E493A3D1
:10021900FAE493A3F8E493A3C8C582C8CAC583CAFC
:10022900F0A3C8C582C8CAC583CADFE9DEE780BEB4
:0104CF00002C
:00000001FF
